{
  "contractName": "SigurnaNarudzba",
  "abi": [
    {
      "constant": true,
      "inputs": [
        {
          "name": "",
          "type": "uint256"
        }
      ],
      "name": "narudzbe",
      "outputs": [
        {
          "name": "id",
          "type": "uint256"
        },
        {
          "name": "opisNarudzbe",
          "type": "string"
        },
        {
          "name": "stanjeNarudzbe",
          "type": "int256"
        },
        {
          "name": "stanje",
          "type": "bool"
        }
      ],
      "payable": false,
      "stateMutability": "view",
      "type": "function",
      "signature": "0x26ac2dc0"
    },
    {
      "constant": true,
      "inputs": [],
      "name": "brojacNarudzbi",
      "outputs": [
        {
          "name": "",
          "type": "uint256"
        }
      ],
      "payable": false,
      "stateMutability": "view",
      "type": "function",
      "signature": "0x6873bae0"
    },
    {
      "anonymous": false,
      "inputs": [
        {
          "indexed": false,
          "name": "id",
          "type": "uint256"
        },
        {
          "indexed": false,
          "name": "opisNarudzbe",
          "type": "string"
        },
        {
          "indexed": false,
          "name": "stanjeNarudzbe",
          "type": "int256"
        },
        {
          "indexed": false,
          "name": "stanje",
          "type": "bool"
        }
      ],
      "name": "NarudzbaKreirana",
      "type": "event",
      "signature": "0xf8305f483c906c235792dceb1f46e32b50fd98921dd40e463b3df9254e62f97f"
    },
    {
      "anonymous": false,
      "inputs": [
        {
          "indexed": false,
          "name": "id",
          "type": "uint256"
        },
        {
          "indexed": false,
          "name": "stanjeNarudzbe",
          "type": "int256"
        }
      ],
      "name": "StanjeNarudzbe",
      "type": "event",
      "signature": "0xa2ccd3bccd132769925da65eace2c0b0dfc1a6528ccd2f350d517405b520a085"
    },
    {
      "constant": false,
      "inputs": [
        {
          "name": "_opisNarudzbe",
          "type": "string"
        }
      ],
      "name": "kreirajNarudzbu",
      "outputs": [],
      "payable": false,
      "stateMutability": "nonpayable",
      "type": "function",
      "signature": "0x3d56d00f"
    },
    {
      "constant": false,
      "inputs": [
        {
          "name": "_id",
          "type": "uint256"
        }
      ],
      "name": "kolonaNarudzbe",
      "outputs": [],
      "payable": false,
      "stateMutability": "nonpayable",
      "type": "function",
      "signature": "0xc25d6c0e"
    }
  ],
  "bytecode": "0x60806040526000805534801561001457600080fd5b506106a6806100246000396000f3fe6080604052600436106100615763ffffffff7c010000000000000000000000000000000000000000000000000000000060003504166326ac2dc081146100665780633d56d00f1461011e5780636873bae0146101d3578063c25d6c0e146101fa575b600080fd5b34801561007257600080fd5b506100906004803603602081101561008957600080fd5b5035610224565b60408051858152908101839052811515606082015260806020808301828152865192840192909252855160a084019187019080838360005b838110156100e05781810151838201526020016100c8565b50505050905090810190601f16801561010d5780820380516001836020036101000a031916815260200191505b509550505050505060405180910390f35b34801561012a57600080fd5b506101d16004803603602081101561014157600080fd5b81019060208101813564010000000081111561015c57600080fd5b82018360208201111561016e57600080fd5b8035906020019184600183028401116401000000008311171561019057600080fd5b91908080601f0160208091040260200160405190810160405280939291908181526020018383808284376000920191909152509295506102da945050505050565b005b3480156101df57600080fd5b506101e8610417565b60408051918252519081900360200190f35b34801561020657600080fd5b506101d16004803603602081101561021d57600080fd5b503561041d565b600160208181526000928352604092839020805481840180548651600296821615610100026000190190911695909504601f810185900485028601850190965285855290949193929091908301828280156102c05780601f10610295576101008083540402835291602001916102c0565b820191906000526020600020905b8154815290600101906020018083116102a357829003601f168201915b50505050600283015460039093015491929160ff16905084565b60008054600190810180835560408051608081018252828152602080820187815282840187905260608301879052938652848152919094208451815591518051929361032e939085019291909101906105b4565b506040820151816002015560608201518160030160006101000a81548160ff0219169083151502179055509050507ff8305f483c906c235792dceb1f46e32b50fd98921dd40e463b3df9254e62f97f60005482600080604051808581526020018060200184815260200183151515158152602001828103825285818151815260200191508051906020019080838360005b838110156103d75781810151838201526020016103bf565b50505050905090810190601f1680156104045780820380516001836020036101000a031916815260200191505b509550505050505060405180910390a150565b60005481565b610425610632565b60008281526001602081815260409283902083516080810185528154815281840180548651600296821615610100026000190190911695909504601f810185900485028601850190965285855290949193858401939092908301828280156104ce5780601f106104a3576101008083540402835291602001916104ce565b820191906000526020600020905b8154815290600101906020018083116104b157829003601f168201915b50505091835250506002820154602082015260039091015460ff1615156040918201528101519091501515610509576001604082015261051e565b80604001516001141561051e57600260408201525b6000828152600160208181526040909220835181558284015180518594929361054c939085019201906105b4565b5060408281015160028301556060909201516003909101805460ff1916911515919091179055818101518151848152602081019190915281517fa2ccd3bccd132769925da65eace2c0b0dfc1a6528ccd2f350d517405b520a085929181900390910190a15050565b828054600181600116156101000203166002900490600052602060002090601f016020900481019282601f106105f557805160ff1916838001178555610622565b82800160010185558215610622579182015b82811115610622578251825591602001919060010190610607565b5061062e92915061065d565b5090565b6080604051908101604052806000815260200160608152602001600081526020016000151581525090565b61067791905b8082111561062e5760008155600101610663565b9056fea165627a7a7230582062caf7edd019b401ae0536a2bae18cac1226944cee966c9c12e4909661aeabb60029",
  "source": "pragma solidity ^0.5.0;\r\n\r\ncontract SigurnaNarudzba {\r\n    uint public brojacNarudzbi = 0;\r\n\r\n    struct Narudzba {\r\n        uint id;\r\n        string opisNarudzbe;\r\n        int stanjeNarudzbe;\r\n        bool stanje;\r\n    }\r\n\r\n    mapping(uint => Narudzba) public narudzbe;\r\n\r\n    event NarudzbaKreirana(\r\n        uint id,\r\n        string opisNarudzbe,\r\n        int stanjeNarudzbe,\r\n        bool stanje\r\n    );\r\n\r\n    event StanjeNarudzbe(\r\n        uint id,\r\n        int stanjeNarudzbe\r\n    );\r\n\r\n    function kreirajNarudzbu(string memory _opisNarudzbe) public {\r\n        brojacNarudzbi ++;\r\n        narudzbe[brojacNarudzbi] = Narudzba(brojacNarudzbi, _opisNarudzbe, 0, false);\r\n        emit NarudzbaKreirana(brojacNarudzbi, _opisNarudzbe, 0, false);\r\n    }\r\n\r\n    function kolonaNarudzbe(uint _id) public {\r\n       Narudzba memory _narudzba = narudzbe[_id];\r\n       if(_narudzba.stanjeNarudzbe == 0) {\r\n           _narudzba.stanjeNarudzbe = 1;\r\n       }else if(_narudzba.stanjeNarudzbe == 1) {\r\n           _narudzba.stanjeNarudzbe = 2;\r\n       }\r\n        narudzbe[_id] = _narudzba;\r\n       emit StanjeNarudzbe(_id, _narudzba.stanjeNarudzbe);\r\n    }\r\n}",
  "sourcePath": "C:/Users/Mateo/Desktop/prisutnost-studenata/contracts/SigurnaNarudzba.sol",
  "compiler": {
    "name": "solc",
    "version": "0.5.0+commit.1d4f565a.Emscripten.clang"
  },
  "schemaVersion": "3.0.1",
  "updatedAt": "2019-06-08T21:31:58.623Z",
  "devdoc": {
    "methods": {}
  },
  "userdoc": {
    "methods": {}
  }
}